{
  "_format": "hh-sol-artifact-1",
  "contractName": "Game",
  "sourceName": "contracts/Game.sol",
  "abi": [
    {
      "inputs": [],
      "stateMutability": "nonpayable",
      "type": "constructor"
    },
    {
      "anonymous": false,
      "inputs": [
        {
          "indexed": true,
          "internalType": "address",
          "name": "owner",
          "type": "address"
        },
        {
          "indexed": true,
          "internalType": "address",
          "name": "approved",
          "type": "address"
        },
        {
          "indexed": true,
          "internalType": "uint256",
          "name": "tokenId",
          "type": "uint256"
        }
      ],
      "name": "Approval",
      "type": "event"
    },
    {
      "anonymous": false,
      "inputs": [
        {
          "indexed": true,
          "internalType": "address",
          "name": "owner",
          "type": "address"
        },
        {
          "indexed": true,
          "internalType": "address",
          "name": "operator",
          "type": "address"
        },
        {
          "indexed": false,
          "internalType": "bool",
          "name": "approved",
          "type": "bool"
        }
      ],
      "name": "ApprovalForAll",
      "type": "event"
    },
    {
      "anonymous": false,
      "inputs": [
        {
          "indexed": true,
          "internalType": "address",
          "name": "from",
          "type": "address"
        },
        {
          "indexed": true,
          "internalType": "address",
          "name": "to",
          "type": "address"
        },
        {
          "indexed": true,
          "internalType": "uint256",
          "name": "tokenId",
          "type": "uint256"
        }
      ],
      "name": "Transfer",
      "type": "event"
    },
    {
      "inputs": [
        {
          "internalType": "address",
          "name": "to",
          "type": "address"
        },
        {
          "internalType": "uint256",
          "name": "tokenId",
          "type": "uint256"
        }
      ],
      "name": "approve",
      "outputs": [],
      "stateMutability": "nonpayable",
      "type": "function"
    },
    {
      "inputs": [
        {
          "internalType": "address",
          "name": "owner",
          "type": "address"
        }
      ],
      "name": "balanceOf",
      "outputs": [
        {
          "internalType": "uint256",
          "name": "",
          "type": "uint256"
        }
      ],
      "stateMutability": "view",
      "type": "function"
    },
    {
      "inputs": [],
      "name": "getAllCharacters",
      "outputs": [
        {
          "components": [
            {
              "internalType": "uint256",
              "name": "characterIndex",
              "type": "uint256"
            },
            {
              "internalType": "string",
              "name": "name",
              "type": "string"
            },
            {
              "internalType": "string",
              "name": "imageURI",
              "type": "string"
            },
            {
              "internalType": "uint256",
              "name": "hp",
              "type": "uint256"
            },
            {
              "internalType": "uint256",
              "name": "attackDamage",
              "type": "uint256"
            }
          ],
          "internalType": "struct Game.CharacterAttributes[]",
          "name": "",
          "type": "tuple[]"
        }
      ],
      "stateMutability": "view",
      "type": "function"
    },
    {
      "inputs": [
        {
          "internalType": "uint256",
          "name": "tokenId",
          "type": "uint256"
        }
      ],
      "name": "getApproved",
      "outputs": [
        {
          "internalType": "address",
          "name": "",
          "type": "address"
        }
      ],
      "stateMutability": "view",
      "type": "function"
    },
    {
      "inputs": [],
      "name": "getUsersNFTs",
      "outputs": [
        {
          "internalType": "uint256[]",
          "name": "",
          "type": "uint256[]"
        }
      ],
      "stateMutability": "view",
      "type": "function"
    },
    {
      "inputs": [
        {
          "internalType": "address",
          "name": "owner",
          "type": "address"
        },
        {
          "internalType": "address",
          "name": "operator",
          "type": "address"
        }
      ],
      "name": "isApprovedForAll",
      "outputs": [
        {
          "internalType": "bool",
          "name": "",
          "type": "bool"
        }
      ],
      "stateMutability": "view",
      "type": "function"
    },
    {
      "inputs": [
        {
          "internalType": "uint256",
          "name": "_characterIndex",
          "type": "uint256"
        }
      ],
      "name": "mintCharacterNFT",
      "outputs": [],
      "stateMutability": "nonpayable",
      "type": "function"
    },
    {
      "inputs": [],
      "name": "name",
      "outputs": [
        {
          "internalType": "string",
          "name": "",
          "type": "string"
        }
      ],
      "stateMutability": "view",
      "type": "function"
    },
    {
      "inputs": [
        {
          "internalType": "uint256",
          "name": "",
          "type": "uint256"
        }
      ],
      "name": "nftHolders",
      "outputs": [
        {
          "internalType": "address",
          "name": "",
          "type": "address"
        }
      ],
      "stateMutability": "view",
      "type": "function"
    },
    {
      "inputs": [
        {
          "internalType": "address",
          "name": "",
          "type": "address"
        },
        {
          "internalType": "uint256",
          "name": "",
          "type": "uint256"
        }
      ],
      "name": "ownerItems",
      "outputs": [
        {
          "internalType": "uint256",
          "name": "",
          "type": "uint256"
        }
      ],
      "stateMutability": "view",
      "type": "function"
    },
    {
      "inputs": [
        {
          "internalType": "uint256",
          "name": "tokenId",
          "type": "uint256"
        }
      ],
      "name": "ownerOf",
      "outputs": [
        {
          "internalType": "address",
          "name": "",
          "type": "address"
        }
      ],
      "stateMutability": "view",
      "type": "function"
    },
    {
      "inputs": [
        {
          "internalType": "address",
          "name": "from",
          "type": "address"
        },
        {
          "internalType": "address",
          "name": "to",
          "type": "address"
        },
        {
          "internalType": "uint256",
          "name": "tokenId",
          "type": "uint256"
        }
      ],
      "name": "safeTransferFrom",
      "outputs": [],
      "stateMutability": "nonpayable",
      "type": "function"
    },
    {
      "inputs": [
        {
          "internalType": "address",
          "name": "from",
          "type": "address"
        },
        {
          "internalType": "address",
          "name": "to",
          "type": "address"
        },
        {
          "internalType": "uint256",
          "name": "tokenId",
          "type": "uint256"
        },
        {
          "internalType": "bytes",
          "name": "_data",
          "type": "bytes"
        }
      ],
      "name": "safeTransferFrom",
      "outputs": [],
      "stateMutability": "nonpayable",
      "type": "function"
    },
    {
      "inputs": [
        {
          "internalType": "address",
          "name": "operator",
          "type": "address"
        },
        {
          "internalType": "bool",
          "name": "approved",
          "type": "bool"
        }
      ],
      "name": "setApprovalForAll",
      "outputs": [],
      "stateMutability": "nonpayable",
      "type": "function"
    },
    {
      "inputs": [
        {
          "internalType": "string",
          "name": "BaseURI",
          "type": "string"
        }
      ],
      "name": "setBaseURI",
      "outputs": [],
      "stateMutability": "nonpayable",
      "type": "function"
    },
    {
      "inputs": [
        {
          "internalType": "bytes4",
          "name": "interfaceId",
          "type": "bytes4"
        }
      ],
      "name": "supportsInterface",
      "outputs": [
        {
          "internalType": "bool",
          "name": "",
          "type": "bool"
        }
      ],
      "stateMutability": "view",
      "type": "function"
    },
    {
      "inputs": [],
      "name": "symbol",
      "outputs": [
        {
          "internalType": "string",
          "name": "",
          "type": "string"
        }
      ],
      "stateMutability": "view",
      "type": "function"
    },
    {
      "inputs": [],
      "name": "tokenCounter",
      "outputs": [
        {
          "internalType": "uint256",
          "name": "",
          "type": "uint256"
        }
      ],
      "stateMutability": "view",
      "type": "function"
    },
    {
      "inputs": [
        {
          "internalType": "uint256",
          "name": "tokenId",
          "type": "uint256"
        }
      ],
      "name": "tokenURI",
      "outputs": [
        {
          "internalType": "string",
          "name": "",
          "type": "string"
        }
      ],
      "stateMutability": "view",
      "type": "function"
    },
    {
      "inputs": [
        {
          "internalType": "address",
          "name": "from",
          "type": "address"
        },
        {
          "internalType": "address",
          "name": "to",
          "type": "address"
        },
        {
          "internalType": "uint256",
          "name": "tokenId",
          "type": "uint256"
        }
      ],
      "name": "transferFrom",
      "outputs": [],
      "stateMutability": "nonpayable",
      "type": "function"
    }
  ],
  "bytecode": "0x60806040523480156200001157600080fd5b506040518060400160405280601981526020017f537570657220436861696e204669676874657220545552424f000000000000008152506040518060400160405280600481526020017f5343465400000000000000000000000000000000000000000000000000000000815250816000908051906020019062000096929190620000c0565b508060019080519060200190620000af929190620000c0565b5050506000600681905550620001d5565b828054620000ce9062000170565b90600052602060002090601f016020900481019282620000f257600085556200013e565b82601f106200010d57805160ff19168380011785556200013e565b828001600101855582156200013e579182015b828111156200013d57825182559160200191906001019062000120565b5b5090506200014d919062000151565b5090565b5b808211156200016c57600081600090555060010162000152565b5090565b600060028204905060018216806200018957607f821691505b60208210811415620001a0576200019f620001a6565b5b50919050565b7f4e487b7100000000000000000000000000000000000000000000000000000000600052602260045260246000fd5b61313280620001e56000396000f3fe608060405234801561001057600080fd5b506004361061012c5760003560e01c806395d89b41116100ad578063d082e38111610071578063d082e38114610341578063e985e9c51461035f578063f524c1511461038f578063f8b81ef7146103bf578063fd32dd9e146103db5761012c565b806395d89b411461029d5780639d36d541146102bb578063a22cb465146102d9578063b88d4fde146102f5578063c87b56dd146103115761012c565b806342842e0e116100f457806342842e0e146101e757806355f804b3146102035780636352211e1461021f57806370a082311461024f57806383e56dca1461027f5761012c565b806301ffc9a71461013157806306fdde0314610161578063081812fc1461017f578063095ea7b3146101af57806323b872dd146101cb575b600080fd5b61014b60048036038101906101469190611f9b565b61040b565b60405161015891906125a4565b60405180910390f35b6101696104ed565b60405161017691906125bf565b60405180910390f35b6101996004803603810190610194919061202e565b61057f565b6040516101a691906124f9565b60405180910390f35b6101c960048036038101906101c49190611f5f565b610604565b005b6101e560048036038101906101e09190611e59565b61071c565b005b61020160048036038101906101fc9190611e59565b61077c565b005b61021d60048036038101906102189190611fed565b61079c565b005b6102396004803603810190610234919061202e565b6107b6565b60405161024691906124f9565b60405180910390f35b61026960048036038101906102649190611df4565b610868565b60405161027691906127df565b60405180910390f35b610287610920565b6040516102949190612560565b60405180910390f35b6102a5610ac1565b6040516102b291906125bf565b60405180910390f35b6102c3610b53565b6040516102d09190612582565b60405180910390f35b6102f360048036038101906102ee9190611f23565b610be8565b005b61030f600480360381019061030a9190611ea8565b610bfe565b005b61032b6004803603810190610326919061202e565b610c60565b60405161033891906125bf565b60405180910390f35b610349610d07565b60405161035691906127df565b60405180910390f35b61037960048036038101906103749190611e1d565b610d0d565b60405161038691906125a4565b60405180910390f35b6103a960048036038101906103a49190611f5f565b610da1565b6040516103b691906127df565b60405180910390f35b6103d960048036038101906103d4919061202e565b610dd2565b005b6103f560048036038101906103f0919061202e565b610e94565b60405161040291906124f9565b60405180910390f35b60007f80ac58cd000000000000000000000000000000000000000000000000000000007bffffffffffffffffffffffffffffffffffffffffffffffffffffffff1916827bffffffffffffffffffffffffffffffffffffffffffffffffffffffff191614806104d657507f5b5e139f000000000000000000000000000000000000000000000000000000007bffffffffffffffffffffffffffffffffffffffffffffffffffffffff1916827bffffffffffffffffffffffffffffffffffffffffffffffffffffffff1916145b806104e657506104e582610ec7565b5b9050919050565b6060600080546104fc90612ab8565b80601f016020809104026020016040519081016040528092919081815260200182805461052890612ab8565b80156105755780601f1061054a57610100808354040283529160200191610575565b820191906000526020600020905b81548152906001019060200180831161055857829003601f168201915b5050505050905090565b600061058a82610f31565b6105c9576040517f08c379a00000000000000000000000000000000000000000000000000000000081526004016105c09061275f565b60405180910390fd5b6004600083815260200190815260200160002060009054906101000a900473ffffffffffffffffffffffffffffffffffffffff169050919050565b600061060f826107b6565b90508073ffffffffffffffffffffffffffffffffffffffff168373ffffffffffffffffffffffffffffffffffffffff161415610680576040517f08c379a00000000000000000000000000000000000000000000000000000000081526004016106779061279f565b60405180910390fd5b8073ffffffffffffffffffffffffffffffffffffffff1661069f610f9d565b73ffffffffffffffffffffffffffffffffffffffff1614806106ce57506106cd816106c8610f9d565b610d0d565b5b61070d576040517f08c379a0000000000000000000000000000000000000000000000000000000008152600401610704906126df565b60405180910390fd5b6107178383610fa5565b505050565b61072d610727610f9d565b8261105e565b61076c576040517f08c379a0000000000000000000000000000000000000000000000000000000008152600401610763906127bf565b60405180910390fd5b61077783838361113c565b505050565b61079783838360405180602001604052806000815250610bfe565b505050565b80600790805190602001906107b2929190611c18565b5050565b6000806002600084815260200190815260200160002060009054906101000a900473ffffffffffffffffffffffffffffffffffffffff169050600073ffffffffffffffffffffffffffffffffffffffff168173ffffffffffffffffffffffffffffffffffffffff16141561085f576040517f08c379a00000000000000000000000000000000000000000000000000000000081526004016108569061271f565b60405180910390fd5b80915050919050565b60008073ffffffffffffffffffffffffffffffffffffffff168273ffffffffffffffffffffffffffffffffffffffff1614156108d9576040517f08c379a00000000000000000000000000000000000000000000000000000000081526004016108d0906126ff565b60405180910390fd5b600360008373ffffffffffffffffffffffffffffffffffffffff1673ffffffffffffffffffffffffffffffffffffffff168152602001908152602001600020549050919050565b60606008805480602002602001604051908101604052809291908181526020016000905b82821015610ab857838290600052602060002090600502016040518060a00160405290816000820154815260200160018201805461098190612ab8565b80601f01602080910402602001604051908101604052809291908181526020018280546109ad90612ab8565b80156109fa5780601f106109cf576101008083540402835291602001916109fa565b820191906000526020600020905b8154815290600101906020018083116109dd57829003601f168201915b50505050508152602001600282018054610a1390612ab8565b80601f0160208091040260200160405190810160405280929190818152602001828054610a3f90612ab8565b8015610a8c5780601f10610a6157610100808354040283529160200191610a8c565b820191906000526020600020905b815481529060010190602001808311610a6f57829003601f168201915b505050505081526020016003820154815260200160048201548152505081526020019060010190610944565b50505050905090565b606060018054610ad090612ab8565b80601f0160208091040260200160405190810160405280929190818152602001828054610afc90612ab8565b8015610b495780601f10610b1e57610100808354040283529160200191610b49565b820191906000526020600020905b815481529060010190602001808311610b2c57829003601f168201915b5050505050905090565b6060600a60003373ffffffffffffffffffffffffffffffffffffffff1673ffffffffffffffffffffffffffffffffffffffff168152602001908152602001600020805480602002602001604051908101604052809291908181526020018280548015610bde57602002820191906000526020600020905b815481526020019060010190808311610bca575b5050505050905090565b610bfa610bf3610f9d565b83836113a3565b5050565b610c0f610c09610f9d565b8361105e565b610c4e576040517f08c379a0000000000000000000000000000000000000000000000000000000008152600401610c45906127bf565b60405180910390fd5b610c5a84848484611510565b50505050565b6060610c6b82610f31565b610caa576040517f08c379a0000000000000000000000000000000000000000000000000000000008152600401610ca19061277f565b60405180910390fd5b6000610cb461156c565b90506000815111610cd45760405180602001604052806000815250610cff565b80610cde8461158c565b604051602001610cef9291906124d5565b6040516020818303038152906040525b915050919050565b60065481565b6000600560008473ffffffffffffffffffffffffffffffffffffffff1673ffffffffffffffffffffffffffffffffffffffff16815260200190815260200160002060008373ffffffffffffffffffffffffffffffffffffffff1673ffffffffffffffffffffffffffffffffffffffff16815260200190815260200160002060009054906101000a900460ff16905092915050565b600a6020528160005260406000208181548110610dbd57600080fd5b90600052602060002001600091509150505481565b610dde33600654611739565b600a60003373ffffffffffffffffffffffffffffffffffffffff1673ffffffffffffffffffffffffffffffffffffffff1681526020019081526020016000206006549080600181540180825580915050600190039060005260206000200160009091909190915055610e776040518060600160405280602e81526020016130cf602e91396001600654610e719190612947565b83611757565b600160066000828254610e8a9190612947565b9250508190555050565b60096020528060005260406000206000915054906101000a900473ffffffffffffffffffffffffffffffffffffffff1681565b60007f01ffc9a7000000000000000000000000000000000000000000000000000000007bffffffffffffffffffffffffffffffffffffffffffffffffffffffff1916827bffffffffffffffffffffffffffffffffffffffffffffffffffffffff1916149050919050565b60008073ffffffffffffffffffffffffffffffffffffffff166002600084815260200190815260200160002060009054906101000a900473ffffffffffffffffffffffffffffffffffffffff1673ffffffffffffffffffffffffffffffffffffffff1614159050919050565b600033905090565b816004600083815260200190815260200160002060006101000a81548173ffffffffffffffffffffffffffffffffffffffff021916908373ffffffffffffffffffffffffffffffffffffffff160217905550808273ffffffffffffffffffffffffffffffffffffffff16611018836107b6565b73ffffffffffffffffffffffffffffffffffffffff167f8c5be1e5ebec7d5bd14f71427d1e84f3dd0314c0f7b2291e5b200ac8c7c3b92560405160405180910390a45050565b600061106982610f31565b6110a8576040517f08c379a000000000000000000000000000000000000000000000000000000000815260040161109f906126bf565b60405180910390fd5b60006110b3836107b6565b90508073ffffffffffffffffffffffffffffffffffffffff168473ffffffffffffffffffffffffffffffffffffffff16148061112257508373ffffffffffffffffffffffffffffffffffffffff1661110a8461057f565b73ffffffffffffffffffffffffffffffffffffffff16145b8061113357506111328185610d0d565b5b91505092915050565b8273ffffffffffffffffffffffffffffffffffffffff1661115c826107b6565b73ffffffffffffffffffffffffffffffffffffffff16146111b2576040517f08c379a00000000000000000000000000000000000000000000000000000000081526004016111a99061263f565b60405180910390fd5b600073ffffffffffffffffffffffffffffffffffffffff168273ffffffffffffffffffffffffffffffffffffffff161415611222576040517f08c379a00000000000000000000000000000000000000000000000000000000081526004016112199061267f565b60405180910390fd5b61122d8383836117f6565b611238600082610fa5565b6001600360008573ffffffffffffffffffffffffffffffffffffffff1673ffffffffffffffffffffffffffffffffffffffff168152602001908152602001600020600082825461128891906129ce565b925050819055506001600360008473ffffffffffffffffffffffffffffffffffffffff1673ffffffffffffffffffffffffffffffffffffffff16815260200190815260200160002060008282546112df9190612947565b92505081905550816002600083815260200190815260200160002060006101000a81548173ffffffffffffffffffffffffffffffffffffffff021916908373ffffffffffffffffffffffffffffffffffffffff160217905550808273ffffffffffffffffffffffffffffffffffffffff168473ffffffffffffffffffffffffffffffffffffffff167fddf252ad1be2c89b69c2b068fc378daa952ba7f163c4a11628f55a4df523b3ef60405160405180910390a461139e8383836117fb565b505050565b8173ffffffffffffffffffffffffffffffffffffffff168373ffffffffffffffffffffffffffffffffffffffff161415611412576040517f08c379a00000000000000000000000000000000000000000000000000000000081526004016114099061269f565b60405180910390fd5b80600560008573ffffffffffffffffffffffffffffffffffffffff1673ffffffffffffffffffffffffffffffffffffffff16815260200190815260200160002060008473ffffffffffffffffffffffffffffffffffffffff1673ffffffffffffffffffffffffffffffffffffffff16815260200190815260200160002060006101000a81548160ff0219169083151502179055508173ffffffffffffffffffffffffffffffffffffffff168373ffffffffffffffffffffffffffffffffffffffff167f17307eab39ab6107e8899845ad3d59bd9653f200f220920489ca2b5937696c318360405161150391906125a4565b60405180910390a3505050565b61151b84848461113c565b61152784848484611800565b611566576040517f08c379a000000000000000000000000000000000000000000000000000000000815260040161155d9061261f565b60405180910390fd5b50505050565b606060405180606001604052806030815260200161309f60309139905090565b606060008214156115d4576040518060400160405280600181526020017f30000000000000000000000000000000000000000000000000000000000000008152509050611734565b600082905060005b600082146116065780806115ef90612b1b565b915050600a826115ff919061299d565b91506115dc565b60008167ffffffffffffffff811115611648577f4e487b7100000000000000000000000000000000000000000000000000000000600052604160045260246000fd5b6040519080825280601f01601f19166020018201604052801561167a5781602001600182028036833780820191505090505b5090505b6000851461172d5760018261169391906129ce565b9150600a856116a29190612b64565b60306116ae9190612947565b60f81b8183815181106116ea577f4e487b7100000000000000000000000000000000000000000000000000000000600052603260045260246000fd5b60200101907effffffffffffffffffffffffffffffffffffffffffffffffffffffffffffff1916908160001a905350600a85611726919061299d565b945061167e565b8093505050505b919050565b611753828260405180602001604052806000815250611997565b5050565b6117f183838360405160240161176f939291906125e1565b6040516020818303038152906040527f969cdd03000000000000000000000000000000000000000000000000000000007bffffffffffffffffffffffffffffffffffffffffffffffffffffffff19166020820180517bffffffffffffffffffffffffffffffffffffffffffffffffffffffff83818316178352505050506119f2565b505050565b505050565b505050565b60006118218473ffffffffffffffffffffffffffffffffffffffff16611a1b565b1561198a578373ffffffffffffffffffffffffffffffffffffffff1663150b7a0261184a610f9d565b8786866040518563ffffffff1660e01b815260040161186c9493929190612514565b602060405180830381600087803b15801561188657600080fd5b505af19250505080156118b757506040513d601f19601f820116820180604052508101906118b49190611fc4565b60015b61193a573d80600081146118e7576040519150601f19603f3d011682016040523d82523d6000602084013e6118ec565b606091505b50600081511415611932576040517f08c379a00000000000000000000000000000000000000000000000000000000081526004016119299061261f565b60405180910390fd5b805181602001fd5b63150b7a0260e01b7bffffffffffffffffffffffffffffffffffffffffffffffffffffffff1916817bffffffffffffffffffffffffffffffffffffffffffffffffffffffff19161491505061198f565b600190505b949350505050565b6119a18383611a3e565b6119ae6000848484611800565b6119ed576040517f08c379a00000000000000000000000000000000000000000000000000000000081526004016119e49061261f565b60405180910390fd5b505050565b60008151905060006a636f6e736f6c652e6c6f679050602083016000808483855afa5050505050565b6000808273ffffffffffffffffffffffffffffffffffffffff163b119050919050565b600073ffffffffffffffffffffffffffffffffffffffff168273ffffffffffffffffffffffffffffffffffffffff161415611aae576040517f08c379a0000000000000000000000000000000000000000000000000000000008152600401611aa59061273f565b60405180910390fd5b611ab781610f31565b15611af7576040517f08c379a0000000000000000000000000000000000000000000000000000000008152600401611aee9061265f565b60405180910390fd5b611b03600083836117f6565b6001600360008473ffffffffffffffffffffffffffffffffffffffff1673ffffffffffffffffffffffffffffffffffffffff1681526020019081526020016000206000828254611b539190612947565b92505081905550816002600083815260200190815260200160002060006101000a81548173ffffffffffffffffffffffffffffffffffffffff021916908373ffffffffffffffffffffffffffffffffffffffff160217905550808273ffffffffffffffffffffffffffffffffffffffff16600073ffffffffffffffffffffffffffffffffffffffff167fddf252ad1be2c89b69c2b068fc378daa952ba7f163c4a11628f55a4df523b3ef60405160405180910390a4611c14600083836117fb565b5050565b828054611c2490612ab8565b90600052602060002090601f016020900481019282611c465760008555611c8d565b82601f10611c5f57805160ff1916838001178555611c8d565b82800160010185558215611c8d579182015b82811115611c8c578251825591602001919060010190611c71565b5b509050611c9a9190611c9e565b5090565b5b80821115611cb7576000816000905550600101611c9f565b5090565b6000611cce611cc98461281f565b6127fa565b905082815260208101848484011115611ce657600080fd5b611cf1848285612a76565b509392505050565b6000611d0c611d0784612850565b6127fa565b905082815260208101848484011115611d2457600080fd5b611d2f848285612a76565b509392505050565b600081359050611d4681613042565b92915050565b600081359050611d5b81613059565b92915050565b600081359050611d7081613070565b92915050565b600081519050611d8581613070565b92915050565b600082601f830112611d9c57600080fd5b8135611dac848260208601611cbb565b91505092915050565b600082601f830112611dc657600080fd5b8135611dd6848260208601611cf9565b91505092915050565b600081359050611dee81613087565b92915050565b600060208284031215611e0657600080fd5b6000611e1484828501611d37565b91505092915050565b60008060408385031215611e3057600080fd5b6000611e3e85828601611d37565b9250506020611e4f85828601611d37565b9150509250929050565b600080600060608486031215611e6e57600080fd5b6000611e7c86828701611d37565b9350506020611e8d86828701611d37565b9250506040611e9e86828701611ddf565b9150509250925092565b60008060008060808587031215611ebe57600080fd5b6000611ecc87828801611d37565b9450506020611edd87828801611d37565b9350506040611eee87828801611ddf565b925050606085013567ffffffffffffffff811115611f0b57600080fd5b611f1787828801611d8b565b91505092959194509250565b60008060408385031215611f3657600080fd5b6000611f4485828601611d37565b9250506020611f5585828601611d4c565b9150509250929050565b60008060408385031215611f7257600080fd5b6000611f8085828601611d37565b9250506020611f9185828601611ddf565b9150509250929050565b600060208284031215611fad57600080fd5b6000611fbb84828501611d61565b91505092915050565b600060208284031215611fd657600080fd5b6000611fe484828501611d76565b91505092915050565b600060208284031215611fff57600080fd5b600082013567ffffffffffffffff81111561201957600080fd5b61202584828501611db5565b91505092915050565b60006020828403121561204057600080fd5b600061204e84828501611ddf565b91505092915050565b6000612063838361243a565b905092915050565b600061207783836124b7565b60208301905092915050565b61208c81612a02565b82525050565b600061209d826128a1565b6120a781856128e7565b9350836020820285016120b985612881565b8060005b858110156120f557848403895281516120d68582612057565b94506120e1836128cd565b925060208a019950506001810190506120bd565b50829750879550505050505092915050565b6000612112826128ac565b61211c81856128f8565b935061212783612891565b8060005b8381101561215857815161213f888261206b565b975061214a836128da565b92505060018101905061212b565b5085935050505092915050565b61216e81612a14565b82525050565b600061217f826128b7565b6121898185612909565b9350612199818560208601612a85565b6121a281612c51565b840191505092915050565b60006121b8826128c2565b6121c2818561291a565b93506121d2818560208601612a85565b6121db81612c51565b840191505092915050565b60006121f1826128c2565b6121fb818561292b565b935061220b818560208601612a85565b61221481612c51565b840191505092915050565b600061222a826128c2565b612234818561293c565b9350612244818560208601612a85565b80840191505092915050565b600061225d60328361292b565b915061226882612c62565b604082019050919050565b600061228060258361292b565b915061228b82612cb1565b604082019050919050565b60006122a3601c8361292b565b91506122ae82612d00565b602082019050919050565b60006122c660248361292b565b91506122d182612d29565b604082019050919050565b60006122e960198361292b565b91506122f482612d78565b602082019050919050565b600061230c602c8361292b565b915061231782612da1565b604082019050919050565b600061232f60388361292b565b915061233a82612df0565b604082019050919050565b6000612352602a8361292b565b915061235d82612e3f565b604082019050919050565b600061237560298361292b565b915061238082612e8e565b604082019050919050565b600061239860208361292b565b91506123a382612edd565b602082019050919050565b60006123bb602c8361292b565b91506123c682612f06565b604082019050919050565b60006123de602f8361292b565b91506123e982612f55565b604082019050919050565b600061240160218361292b565b915061240c82612fa4565b604082019050919050565b600061242460318361292b565b915061242f82612ff3565b604082019050919050565b600060a08301600083015161245260008601826124b7565b506020830151848203602086015261246a82826121ad565b9150506040830151848203604086015261248482826121ad565b915050606083015161249960608601826124b7565b5060808301516124ac60808601826124b7565b508091505092915050565b6124c081612a6c565b82525050565b6124cf81612a6c565b82525050565b60006124e1828561221f565b91506124ed828461221f565b91508190509392505050565b600060208201905061250e6000830184612083565b92915050565b60006080820190506125296000830187612083565b6125366020830186612083565b61254360408301856124c6565b81810360608301526125558184612174565b905095945050505050565b6000602082019050818103600083015261257a8184612092565b905092915050565b6000602082019050818103600083015261259c8184612107565b905092915050565b60006020820190506125b96000830184612165565b92915050565b600060208201905081810360008301526125d981846121e6565b905092915050565b600060608201905081810360008301526125fb81866121e6565b905061260a60208301856124c6565b61261760408301846124c6565b949350505050565b6000602082019050818103600083015261263881612250565b9050919050565b6000602082019050818103600083015261265881612273565b9050919050565b6000602082019050818103600083015261267881612296565b9050919050565b60006020820190508181036000830152612698816122b9565b9050919050565b600060208201905081810360008301526126b8816122dc565b9050919050565b600060208201905081810360008301526126d8816122ff565b9050919050565b600060208201905081810360008301526126f881612322565b9050919050565b6000602082019050818103600083015261271881612345565b9050919050565b6000602082019050818103600083015261273881612368565b9050919050565b600060208201905081810360008301526127588161238b565b9050919050565b60006020820190508181036000830152612778816123ae565b9050919050565b60006020820190508181036000830152612798816123d1565b9050919050565b600060208201905081810360008301526127b8816123f4565b9050919050565b600060208201905081810360008301526127d881612417565b9050919050565b60006020820190506127f460008301846124c6565b92915050565b6000612804612815565b90506128108282612aea565b919050565b6000604051905090565b600067ffffffffffffffff82111561283a57612839612c22565b5b61284382612c51565b9050602081019050919050565b600067ffffffffffffffff82111561286b5761286a612c22565b5b61287482612c51565b9050602081019050919050565b6000819050602082019050919050565b6000819050602082019050919050565b600081519050919050565b600081519050919050565b600081519050919050565b600081519050919050565b6000602082019050919050565b6000602082019050919050565b600082825260208201905092915050565b600082825260208201905092915050565b600082825260208201905092915050565b600082825260208201905092915050565b600082825260208201905092915050565b600081905092915050565b600061295282612a6c565b915061295d83612a6c565b9250827fffffffffffffffffffffffffffffffffffffffffffffffffffffffffffffffff0382111561299257612991612b95565b5b828201905092915050565b60006129a882612a6c565b91506129b383612a6c565b9250826129c3576129c2612bc4565b5b828204905092915050565b60006129d982612a6c565b91506129e483612a6c565b9250828210156129f7576129f6612b95565b5b828203905092915050565b6000612a0d82612a4c565b9050919050565b60008115159050919050565b60007fffffffff0000000000000000000000000000000000000000000000000000000082169050919050565b600073ffffffffffffffffffffffffffffffffffffffff82169050919050565b6000819050919050565b82818337600083830152505050565b60005b83811015612aa3578082015181840152602081019050612a88565b83811115612ab2576000848401525b50505050565b60006002820490506001821680612ad057607f821691505b60208210811415612ae457612ae3612bf3565b5b50919050565b612af382612c51565b810181811067ffffffffffffffff82111715612b1257612b11612c22565b5b80604052505050565b6000612b2682612a6c565b91507fffffffffffffffffffffffffffffffffffffffffffffffffffffffffffffffff821415612b5957612b58612b95565b5b600182019050919050565b6000612b6f82612a6c565b9150612b7a83612a6c565b925082612b8a57612b89612bc4565b5b828206905092915050565b7f4e487b7100000000000000000000000000000000000000000000000000000000600052601160045260246000fd5b7f4e487b7100000000000000000000000000000000000000000000000000000000600052601260045260246000fd5b7f4e487b7100000000000000000000000000000000000000000000000000000000600052602260045260246000fd5b7f4e487b7100000000000000000000000000000000000000000000000000000000600052604160045260246000fd5b6000601f19601f8301169050919050565b7f4552433732313a207472616e7366657220746f206e6f6e20455243373231526560008201527f63656976657220696d706c656d656e7465720000000000000000000000000000602082015250565b7f4552433732313a207472616e736665722066726f6d20696e636f72726563742060008201527f6f776e6572000000000000000000000000000000000000000000000000000000602082015250565b7f4552433732313a20746f6b656e20616c7265616479206d696e74656400000000600082015250565b7f4552433732313a207472616e7366657220746f20746865207a65726f2061646460008201527f7265737300000000000000000000000000000000000000000000000000000000602082015250565b7f4552433732313a20617070726f766520746f2063616c6c657200000000000000600082015250565b7f4552433732313a206f70657261746f7220717565727920666f72206e6f6e657860008201527f697374656e7420746f6b656e0000000000000000000000000000000000000000602082015250565b7f4552433732313a20617070726f76652063616c6c6572206973206e6f74206f7760008201527f6e6572206e6f7220617070726f76656420666f7220616c6c0000000000000000602082015250565b7f4552433732313a2062616c616e636520717565727920666f7220746865207a6560008201527f726f206164647265737300000000000000000000000000000000000000000000602082015250565b7f4552433732313a206f776e657220717565727920666f72206e6f6e657869737460008201527f656e7420746f6b656e0000000000000000000000000000000000000000000000602082015250565b7f4552433732313a206d696e7420746f20746865207a65726f2061646472657373600082015250565b7f4552433732313a20617070726f76656420717565727920666f72206e6f6e657860008201527f697374656e7420746f6b656e0000000000000000000000000000000000000000602082015250565b7f4552433732314d657461646174613a2055524920717565727920666f72206e6f60008201527f6e6578697374656e7420746f6b656e0000000000000000000000000000000000602082015250565b7f4552433732313a20617070726f76616c20746f2063757272656e74206f776e6560008201527f7200000000000000000000000000000000000000000000000000000000000000602082015250565b7f4552433732313a207472616e736665722063616c6c6572206973206e6f74206f60008201527f776e6572206e6f7220617070726f766564000000000000000000000000000000602082015250565b61304b81612a02565b811461305657600080fd5b50565b61306281612a14565b811461306d57600080fd5b50565b61307981612a20565b811461308457600080fd5b50565b61309081612a6c565b811461309b57600080fd5b5056fe68747470733a2f2f746573746e65742e7461626c656c616e642e6e6574776f726b2f7461626c65732f3330392f69642f4d696e746564204e465420772f20746f6b656e496420257320616e6420636861726163746572496e646578202573a2646970667358221220638283935027b35771b1c85f85789c1ea5b62b1b563b6438feb5f80715d386b764736f6c63430008040033",
  "linkReferences": {},
  "deployedLinkReferences": {}
}