{
  "_format": "hh-sol-artifact-1",
  "contractName": "Game",
  "sourceName": "contracts/Game.sol",
  "abi": [
    {
      "inputs": [],
      "stateMutability": "nonpayable",
      "type": "constructor"
    },
    {
      "anonymous": false,
      "inputs": [
        {
          "indexed": true,
          "internalType": "address",
          "name": "owner",
          "type": "address"
        },
        {
          "indexed": true,
          "internalType": "address",
          "name": "approved",
          "type": "address"
        },
        {
          "indexed": true,
          "internalType": "uint256",
          "name": "tokenId",
          "type": "uint256"
        }
      ],
      "name": "Approval",
      "type": "event"
    },
    {
      "anonymous": false,
      "inputs": [
        {
          "indexed": true,
          "internalType": "address",
          "name": "owner",
          "type": "address"
        },
        {
          "indexed": true,
          "internalType": "address",
          "name": "operator",
          "type": "address"
        },
        {
          "indexed": false,
          "internalType": "bool",
          "name": "approved",
          "type": "bool"
        }
      ],
      "name": "ApprovalForAll",
      "type": "event"
    },
    {
      "anonymous": false,
      "inputs": [
        {
          "indexed": true,
          "internalType": "address",
          "name": "from",
          "type": "address"
        },
        {
          "indexed": true,
          "internalType": "address",
          "name": "to",
          "type": "address"
        },
        {
          "indexed": true,
          "internalType": "uint256",
          "name": "tokenId",
          "type": "uint256"
        }
      ],
      "name": "Transfer",
      "type": "event"
    },
    {
      "inputs": [
        {
          "internalType": "address",
          "name": "to",
          "type": "address"
        },
        {
          "internalType": "uint256",
          "name": "tokenId",
          "type": "uint256"
        }
      ],
      "name": "approve",
      "outputs": [],
      "stateMutability": "nonpayable",
      "type": "function"
    },
    {
      "inputs": [
        {
          "internalType": "address",
          "name": "owner",
          "type": "address"
        }
      ],
      "name": "balanceOf",
      "outputs": [
        {
          "internalType": "uint256",
          "name": "",
          "type": "uint256"
        }
      ],
      "stateMutability": "view",
      "type": "function"
    },
    {
      "inputs": [],
      "name": "getAllCharacters",
      "outputs": [
        {
          "components": [
            {
              "internalType": "uint256",
              "name": "characterIndex",
              "type": "uint256"
            },
            {
              "internalType": "string",
              "name": "name",
              "type": "string"
            },
            {
              "internalType": "string",
              "name": "imageURI",
              "type": "string"
            },
            {
              "internalType": "uint256",
              "name": "hp",
              "type": "uint256"
            },
            {
              "internalType": "uint256",
              "name": "attackDamage",
              "type": "uint256"
            }
          ],
          "internalType": "struct Game.CharacterAttributes[]",
          "name": "",
          "type": "tuple[]"
        }
      ],
      "stateMutability": "view",
      "type": "function"
    },
    {
      "inputs": [
        {
          "internalType": "uint256",
          "name": "tokenId",
          "type": "uint256"
        }
      ],
      "name": "getApproved",
      "outputs": [
        {
          "internalType": "address",
          "name": "",
          "type": "address"
        }
      ],
      "stateMutability": "view",
      "type": "function"
    },
    {
      "inputs": [],
      "name": "getCounter",
      "outputs": [
        {
          "internalType": "uint256",
          "name": "",
          "type": "uint256"
        }
      ],
      "stateMutability": "view",
      "type": "function"
    },
    {
      "inputs": [],
      "name": "getUsersNFTs",
      "outputs": [
        {
          "internalType": "uint256[]",
          "name": "",
          "type": "uint256[]"
        }
      ],
      "stateMutability": "view",
      "type": "function"
    },
    {
      "inputs": [
        {
          "internalType": "address",
          "name": "owner",
          "type": "address"
        },
        {
          "internalType": "address",
          "name": "operator",
          "type": "address"
        }
      ],
      "name": "isApprovedForAll",
      "outputs": [
        {
          "internalType": "bool",
          "name": "",
          "type": "bool"
        }
      ],
      "stateMutability": "view",
      "type": "function"
    },
    {
      "inputs": [
        {
          "internalType": "uint256",
          "name": "_characterIndex",
          "type": "uint256"
        }
      ],
      "name": "mintCharacterNFT",
      "outputs": [],
      "stateMutability": "nonpayable",
      "type": "function"
    },
    {
      "inputs": [],
      "name": "name",
      "outputs": [
        {
          "internalType": "string",
          "name": "",
          "type": "string"
        }
      ],
      "stateMutability": "view",
      "type": "function"
    },
    {
      "inputs": [
        {
          "internalType": "uint256",
          "name": "",
          "type": "uint256"
        }
      ],
      "name": "nftHolders",
      "outputs": [
        {
          "internalType": "address",
          "name": "",
          "type": "address"
        }
      ],
      "stateMutability": "view",
      "type": "function"
    },
    {
      "inputs": [
        {
          "internalType": "address",
          "name": "",
          "type": "address"
        },
        {
          "internalType": "uint256",
          "name": "",
          "type": "uint256"
        }
      ],
      "name": "ownerItems",
      "outputs": [
        {
          "internalType": "uint256",
          "name": "",
          "type": "uint256"
        }
      ],
      "stateMutability": "view",
      "type": "function"
    },
    {
      "inputs": [
        {
          "internalType": "uint256",
          "name": "tokenId",
          "type": "uint256"
        }
      ],
      "name": "ownerOf",
      "outputs": [
        {
          "internalType": "address",
          "name": "",
          "type": "address"
        }
      ],
      "stateMutability": "view",
      "type": "function"
    },
    {
      "inputs": [
        {
          "internalType": "address",
          "name": "from",
          "type": "address"
        },
        {
          "internalType": "address",
          "name": "to",
          "type": "address"
        },
        {
          "internalType": "uint256",
          "name": "tokenId",
          "type": "uint256"
        }
      ],
      "name": "safeTransferFrom",
      "outputs": [],
      "stateMutability": "nonpayable",
      "type": "function"
    },
    {
      "inputs": [
        {
          "internalType": "address",
          "name": "from",
          "type": "address"
        },
        {
          "internalType": "address",
          "name": "to",
          "type": "address"
        },
        {
          "internalType": "uint256",
          "name": "tokenId",
          "type": "uint256"
        },
        {
          "internalType": "bytes",
          "name": "_data",
          "type": "bytes"
        }
      ],
      "name": "safeTransferFrom",
      "outputs": [],
      "stateMutability": "nonpayable",
      "type": "function"
    },
    {
      "inputs": [
        {
          "internalType": "address",
          "name": "operator",
          "type": "address"
        },
        {
          "internalType": "bool",
          "name": "approved",
          "type": "bool"
        }
      ],
      "name": "setApprovalForAll",
      "outputs": [],
      "stateMutability": "nonpayable",
      "type": "function"
    },
    {
      "inputs": [
        {
          "internalType": "string",
          "name": "BaseURI",
          "type": "string"
        }
      ],
      "name": "setBaseURI",
      "outputs": [],
      "stateMutability": "nonpayable",
      "type": "function"
    },
    {
      "inputs": [
        {
          "internalType": "bytes4",
          "name": "interfaceId",
          "type": "bytes4"
        }
      ],
      "name": "supportsInterface",
      "outputs": [
        {
          "internalType": "bool",
          "name": "",
          "type": "bool"
        }
      ],
      "stateMutability": "view",
      "type": "function"
    },
    {
      "inputs": [],
      "name": "symbol",
      "outputs": [
        {
          "internalType": "string",
          "name": "",
          "type": "string"
        }
      ],
      "stateMutability": "view",
      "type": "function"
    },
    {
      "inputs": [],
      "name": "tokenCounter",
      "outputs": [
        {
          "internalType": "uint256",
          "name": "",
          "type": "uint256"
        }
      ],
      "stateMutability": "view",
      "type": "function"
    },
    {
      "inputs": [
        {
          "internalType": "uint256",
          "name": "_tokenId",
          "type": "uint256"
        }
      ],
      "name": "tokenURI",
      "outputs": [
        {
          "internalType": "string",
          "name": "",
          "type": "string"
        }
      ],
      "stateMutability": "pure",
      "type": "function"
    },
    {
      "inputs": [
        {
          "internalType": "address",
          "name": "from",
          "type": "address"
        },
        {
          "internalType": "address",
          "name": "to",
          "type": "address"
        },
        {
          "internalType": "uint256",
          "name": "tokenId",
          "type": "uint256"
        }
      ],
      "name": "transferFrom",
      "outputs": [],
      "stateMutability": "nonpayable",
      "type": "function"
    }
  ],
  "bytecode": "0x60806040523480156200001157600080fd5b506040518060400160405280601981526020017f537570657220436861696e204669676874657220545552424f000000000000008152506040518060400160405280600481526020017f5343465400000000000000000000000000000000000000000000000000000000815250816000908051906020019062000096929190620000c0565b508060019080519060200190620000af929190620000c0565b5050506000600681905550620001d5565b828054620000ce9062000170565b90600052602060002090601f016020900481019282620000f257600085556200013e565b82601f106200010d57805160ff19168380011785556200013e565b828001600101855582156200013e579182015b828111156200013d57825182559160200191906001019062000120565b5b5090506200014d919062000151565b5090565b5b808211156200016c57600081600090555060010162000152565b5090565b600060028204905060018216806200018957607f821691505b60208210811415620001a0576200019f620001a6565b5b50919050565b7f4e487b7100000000000000000000000000000000000000000000000000000000600052602260045260246000fd5b61308380620001e56000396000f3fe608060405234801561001057600080fd5b50600436106101375760003560e01c80638ada066e116100b8578063c87b56dd1161007c578063c87b56dd1461033a578063d082e3811461036a578063e985e9c514610388578063f524c151146103b8578063f8b81ef7146103e8578063fd32dd9e1461040457610137565b80638ada066e146102a857806395d89b41146102c65780639d36d541146102e4578063a22cb46514610302578063b88d4fde1461031e57610137565b806342842e0e116100ff57806342842e0e146101f257806355f804b31461020e5780636352211e1461022a57806370a082311461025a57806383e56dca1461028a57610137565b806301ffc9a71461013c57806306fdde031461016c578063081812fc1461018a578063095ea7b3146101ba57806323b872dd146101d6575b600080fd5b61015660048036038101906101519190611f3e565b610434565b6040516101639190612545565b60405180910390f35b610174610516565b6040516101819190612560565b60405180910390f35b6101a4600480360381019061019f9190611fd1565b6105a8565b6040516101b1919061249a565b60405180910390f35b6101d460048036038101906101cf9190611f02565b61062d565b005b6101f060048036038101906101eb9190611dfc565b610745565b005b61020c60048036038101906102079190611dfc565b6107a5565b005b61022860048036038101906102239190611f90565b6107c5565b005b610244600480360381019061023f9190611fd1565b6107df565b604051610251919061249a565b60405180910390f35b610274600480360381019061026f9190611d97565b610891565b6040516102819190612760565b60405180910390f35b610292610949565b60405161029f9190612501565b60405180910390f35b6102b0610aea565b6040516102bd9190612760565b60405180910390f35b6102ce610af4565b6040516102db9190612560565b60405180910390f35b6102ec610b86565b6040516102f99190612523565b60405180910390f35b61031c60048036038101906103179190611ec6565b610c1b565b005b61033860048036038101906103339190611e4b565b610c31565b005b610354600480360381019061034f9190611fd1565b610c93565b6040516103619190612560565b60405180910390f35b610372610cca565b60405161037f9190612760565b60405180910390f35b6103a2600480360381019061039d9190611dc0565b610cd0565b6040516103af9190612545565b60405180910390f35b6103d260048036038101906103cd9190611f02565b610d64565b6040516103df9190612760565b60405180910390f35b61040260048036038101906103fd9190611fd1565b610d95565b005b61041e60048036038101906104199190611fd1565b610e57565b60405161042b919061249a565b60405180910390f35b60007f80ac58cd000000000000000000000000000000000000000000000000000000007bffffffffffffffffffffffffffffffffffffffffffffffffffffffff1916827bffffffffffffffffffffffffffffffffffffffffffffffffffffffff191614806104ff57507f5b5e139f000000000000000000000000000000000000000000000000000000007bffffffffffffffffffffffffffffffffffffffffffffffffffffffff1916827bffffffffffffffffffffffffffffffffffffffffffffffffffffffff1916145b8061050f575061050e82610e8a565b5b9050919050565b60606000805461052590612a39565b80601f016020809104026020016040519081016040528092919081815260200182805461055190612a39565b801561059e5780601f106105735761010080835404028352916020019161059e565b820191906000526020600020905b81548152906001019060200180831161058157829003601f168201915b5050505050905090565b60006105b382610ef4565b6105f2576040517f08c379a00000000000000000000000000000000000000000000000000000000081526004016105e990612700565b60405180910390fd5b6004600083815260200190815260200160002060009054906101000a900473ffffffffffffffffffffffffffffffffffffffff169050919050565b6000610638826107df565b90508073ffffffffffffffffffffffffffffffffffffffff168373ffffffffffffffffffffffffffffffffffffffff1614156106a9576040517f08c379a00000000000000000000000000000000000000000000000000000000081526004016106a090612720565b60405180910390fd5b8073ffffffffffffffffffffffffffffffffffffffff166106c8610f60565b73ffffffffffffffffffffffffffffffffffffffff1614806106f757506106f6816106f1610f60565b610cd0565b5b610736576040517f08c379a000000000000000000000000000000000000000000000000000000000815260040161072d90612680565b60405180910390fd5b6107408383610f68565b505050565b610756610750610f60565b82611021565b610795576040517f08c379a000000000000000000000000000000000000000000000000000000000815260040161078c90612740565b60405180910390fd5b6107a08383836110ff565b505050565b6107c083838360405180602001604052806000815250610c31565b505050565b80600790805190602001906107db929190611bbb565b5050565b6000806002600084815260200190815260200160002060009054906101000a900473ffffffffffffffffffffffffffffffffffffffff169050600073ffffffffffffffffffffffffffffffffffffffff168173ffffffffffffffffffffffffffffffffffffffff161415610888576040517f08c379a000000000000000000000000000000000000000000000000000000000815260040161087f906126c0565b60405180910390fd5b80915050919050565b60008073ffffffffffffffffffffffffffffffffffffffff168273ffffffffffffffffffffffffffffffffffffffff161415610902576040517f08c379a00000000000000000000000000000000000000000000000000000000081526004016108f9906126a0565b60405180910390fd5b600360008373ffffffffffffffffffffffffffffffffffffffff1673ffffffffffffffffffffffffffffffffffffffff168152602001908152602001600020549050919050565b60606008805480602002602001604051908101604052809291908181526020016000905b82821015610ae157838290600052602060002090600502016040518060a0016040529081600082015481526020016001820180546109aa90612a39565b80601f01602080910402602001604051908101604052809291908181526020018280546109d690612a39565b8015610a235780601f106109f857610100808354040283529160200191610a23565b820191906000526020600020905b815481529060010190602001808311610a0657829003601f168201915b50505050508152602001600282018054610a3c90612a39565b80601f0160208091040260200160405190810160405280929190818152602001828054610a6890612a39565b8015610ab55780601f10610a8a57610100808354040283529160200191610ab5565b820191906000526020600020905b815481529060010190602001808311610a9857829003601f168201915b50505050508152602001600382015481526020016004820154815250508152602001906001019061096d565b50505050905090565b6000600654905090565b606060018054610b0390612a39565b80601f0160208091040260200160405190810160405280929190818152602001828054610b2f90612a39565b8015610b7c5780601f10610b5157610100808354040283529160200191610b7c565b820191906000526020600020905b815481529060010190602001808311610b5f57829003601f168201915b5050505050905090565b6060600a60003373ffffffffffffffffffffffffffffffffffffffff1673ffffffffffffffffffffffffffffffffffffffff168152602001908152602001600020805480602002602001604051908101604052809291908181526020018280548015610c1157602002820191906000526020600020905b815481526020019060010190808311610bfd575b5050505050905090565b610c2d610c26610f60565b8383611366565b5050565b610c42610c3c610f60565b83611021565b610c81576040517f08c379a0000000000000000000000000000000000000000000000000000000008152600401610c7890612740565b60405180910390fd5b610c8d848484846114d3565b50505050565b60606000610ca08361152f565b905080604051602001610cb39190612478565b604051602081830303815290604052915050919050565b60065481565b6000600560008473ffffffffffffffffffffffffffffffffffffffff1673ffffffffffffffffffffffffffffffffffffffff16815260200190815260200160002060008373ffffffffffffffffffffffffffffffffffffffff1673ffffffffffffffffffffffffffffffffffffffff16815260200190815260200160002060009054906101000a900460ff16905092915050565b600a6020528160005260406000208181548110610d8057600080fd5b90600052602060002001600091509150505481565b610da1336006546116dc565b600a60003373ffffffffffffffffffffffffffffffffffffffff1673ffffffffffffffffffffffffffffffffffffffff1681526020019081526020016000206006549080600181540180825580915050600190039060005260206000200160009091909190915055610e3a6040518060600160405280602e8152602001613020602e91396001600654610e3491906128c8565b836116fa565b600160066000828254610e4d91906128c8565b9250508190555050565b60096020528060005260406000206000915054906101000a900473ffffffffffffffffffffffffffffffffffffffff1681565b60007f01ffc9a7000000000000000000000000000000000000000000000000000000007bffffffffffffffffffffffffffffffffffffffffffffffffffffffff1916827bffffffffffffffffffffffffffffffffffffffffffffffffffffffff1916149050919050565b60008073ffffffffffffffffffffffffffffffffffffffff166002600084815260200190815260200160002060009054906101000a900473ffffffffffffffffffffffffffffffffffffffff1673ffffffffffffffffffffffffffffffffffffffff1614159050919050565b600033905090565b816004600083815260200190815260200160002060006101000a81548173ffffffffffffffffffffffffffffffffffffffff021916908373ffffffffffffffffffffffffffffffffffffffff160217905550808273ffffffffffffffffffffffffffffffffffffffff16610fdb836107df565b73ffffffffffffffffffffffffffffffffffffffff167f8c5be1e5ebec7d5bd14f71427d1e84f3dd0314c0f7b2291e5b200ac8c7c3b92560405160405180910390a45050565b600061102c82610ef4565b61106b576040517f08c379a000000000000000000000000000000000000000000000000000000000815260040161106290612660565b60405180910390fd5b6000611076836107df565b90508073ffffffffffffffffffffffffffffffffffffffff168473ffffffffffffffffffffffffffffffffffffffff1614806110e557508373ffffffffffffffffffffffffffffffffffffffff166110cd846105a8565b73ffffffffffffffffffffffffffffffffffffffff16145b806110f657506110f58185610cd0565b5b91505092915050565b8273ffffffffffffffffffffffffffffffffffffffff1661111f826107df565b73ffffffffffffffffffffffffffffffffffffffff1614611175576040517f08c379a000000000000000000000000000000000000000000000000000000000815260040161116c906125e0565b60405180910390fd5b600073ffffffffffffffffffffffffffffffffffffffff168273ffffffffffffffffffffffffffffffffffffffff1614156111e5576040517f08c379a00000000000000000000000000000000000000000000000000000000081526004016111dc90612620565b60405180910390fd5b6111f0838383611799565b6111fb600082610f68565b6001600360008573ffffffffffffffffffffffffffffffffffffffff1673ffffffffffffffffffffffffffffffffffffffff168152602001908152602001600020600082825461124b919061294f565b925050819055506001600360008473ffffffffffffffffffffffffffffffffffffffff1673ffffffffffffffffffffffffffffffffffffffff16815260200190815260200160002060008282546112a291906128c8565b92505081905550816002600083815260200190815260200160002060006101000a81548173ffffffffffffffffffffffffffffffffffffffff021916908373ffffffffffffffffffffffffffffffffffffffff160217905550808273ffffffffffffffffffffffffffffffffffffffff168473ffffffffffffffffffffffffffffffffffffffff167fddf252ad1be2c89b69c2b068fc378daa952ba7f163c4a11628f55a4df523b3ef60405160405180910390a461136183838361179e565b505050565b8173ffffffffffffffffffffffffffffffffffffffff168373ffffffffffffffffffffffffffffffffffffffff1614156113d5576040517f08c379a00000000000000000000000000000000000000000000000000000000081526004016113cc90612640565b60405180910390fd5b80600560008573ffffffffffffffffffffffffffffffffffffffff1673ffffffffffffffffffffffffffffffffffffffff16815260200190815260200160002060008473ffffffffffffffffffffffffffffffffffffffff1673ffffffffffffffffffffffffffffffffffffffff16815260200190815260200160002060006101000a81548160ff0219169083151502179055508173ffffffffffffffffffffffffffffffffffffffff168373ffffffffffffffffffffffffffffffffffffffff167f17307eab39ab6107e8899845ad3d59bd9653f200f220920489ca2b5937696c31836040516114c69190612545565b60405180910390a3505050565b6114de8484846110ff565b6114ea848484846117a3565b611529576040517f08c379a0000000000000000000000000000000000000000000000000000000008152600401611520906125c0565b60405180910390fd5b50505050565b60606000821415611577576040518060400160405280600181526020017f300000000000000000000000000000000000000000000000000000000000000081525090506116d7565b600082905060005b600082146115a957808061159290612a9c565b915050600a826115a2919061291e565b915061157f565b60008167ffffffffffffffff8111156115eb577f4e487b7100000000000000000000000000000000000000000000000000000000600052604160045260246000fd5b6040519080825280601f01601f19166020018201604052801561161d5781602001600182028036833780820191505090505b5090505b600085146116d057600182611636919061294f565b9150600a856116459190612ae5565b603061165191906128c8565b60f81b81838151811061168d577f4e487b7100000000000000000000000000000000000000000000000000000000600052603260045260246000fd5b60200101907effffffffffffffffffffffffffffffffffffffffffffffffffffffffffffff1916908160001a905350600a856116c9919061291e565b9450611621565b8093505050505b919050565b6116f682826040518060200160405280600081525061193a565b5050565b61179483838360405160240161171293929190612582565b6040516020818303038152906040527f969cdd03000000000000000000000000000000000000000000000000000000007bffffffffffffffffffffffffffffffffffffffffffffffffffffffff19166020820180517bffffffffffffffffffffffffffffffffffffffffffffffffffffffff8381831617835250505050611995565b505050565b505050565b505050565b60006117c48473ffffffffffffffffffffffffffffffffffffffff166119be565b1561192d578373ffffffffffffffffffffffffffffffffffffffff1663150b7a026117ed610f60565b8786866040518563ffffffff1660e01b815260040161180f94939291906124b5565b602060405180830381600087803b15801561182957600080fd5b505af192505050801561185a57506040513d601f19601f820116820180604052508101906118579190611f67565b60015b6118dd573d806000811461188a576040519150601f19603f3d011682016040523d82523d6000602084013e61188f565b606091505b506000815114156118d5576040517f08c379a00000000000000000000000000000000000000000000000000000000081526004016118cc906125c0565b60405180910390fd5b805181602001fd5b63150b7a0260e01b7bffffffffffffffffffffffffffffffffffffffffffffffffffffffff1916817bffffffffffffffffffffffffffffffffffffffffffffffffffffffff191614915050611932565b600190505b949350505050565b61194483836119e1565b61195160008484846117a3565b611990576040517f08c379a0000000000000000000000000000000000000000000000000000000008152600401611987906125c0565b60405180910390fd5b505050565b60008151905060006a636f6e736f6c652e6c6f679050602083016000808483855afa5050505050565b6000808273ffffffffffffffffffffffffffffffffffffffff163b119050919050565b600073ffffffffffffffffffffffffffffffffffffffff168273ffffffffffffffffffffffffffffffffffffffff161415611a51576040517f08c379a0000000000000000000000000000000000000000000000000000000008152600401611a48906126e0565b60405180910390fd5b611a5a81610ef4565b15611a9a576040517f08c379a0000000000000000000000000000000000000000000000000000000008152600401611a9190612600565b60405180910390fd5b611aa660008383611799565b6001600360008473ffffffffffffffffffffffffffffffffffffffff1673ffffffffffffffffffffffffffffffffffffffff1681526020019081526020016000206000828254611af691906128c8565b92505081905550816002600083815260200190815260200160002060006101000a81548173ffffffffffffffffffffffffffffffffffffffff021916908373ffffffffffffffffffffffffffffffffffffffff160217905550808273ffffffffffffffffffffffffffffffffffffffff16600073ffffffffffffffffffffffffffffffffffffffff167fddf252ad1be2c89b69c2b068fc378daa952ba7f163c4a11628f55a4df523b3ef60405160405180910390a4611bb76000838361179e565b5050565b828054611bc790612a39565b90600052602060002090601f016020900481019282611be95760008555611c30565b82601f10611c0257805160ff1916838001178555611c30565b82800160010185558215611c30579182015b82811115611c2f578251825591602001919060010190611c14565b5b509050611c3d9190611c41565b5090565b5b80821115611c5a576000816000905550600101611c42565b5090565b6000611c71611c6c846127a0565b61277b565b905082815260208101848484011115611c8957600080fd5b611c948482856129f7565b509392505050565b6000611caf611caa846127d1565b61277b565b905082815260208101848484011115611cc757600080fd5b611cd28482856129f7565b509392505050565b600081359050611ce981612fc3565b92915050565b600081359050611cfe81612fda565b92915050565b600081359050611d1381612ff1565b92915050565b600081519050611d2881612ff1565b92915050565b600082601f830112611d3f57600080fd5b8135611d4f848260208601611c5e565b91505092915050565b600082601f830112611d6957600080fd5b8135611d79848260208601611c9c565b91505092915050565b600081359050611d9181613008565b92915050565b600060208284031215611da957600080fd5b6000611db784828501611cda565b91505092915050565b60008060408385031215611dd357600080fd5b6000611de185828601611cda565b9250506020611df285828601611cda565b9150509250929050565b600080600060608486031215611e1157600080fd5b6000611e1f86828701611cda565b9350506020611e3086828701611cda565b9250506040611e4186828701611d82565b9150509250925092565b60008060008060808587031215611e6157600080fd5b6000611e6f87828801611cda565b9450506020611e8087828801611cda565b9350506040611e9187828801611d82565b925050606085013567ffffffffffffffff811115611eae57600080fd5b611eba87828801611d2e565b91505092959194509250565b60008060408385031215611ed957600080fd5b6000611ee785828601611cda565b9250506020611ef885828601611cef565b9150509250929050565b60008060408385031215611f1557600080fd5b6000611f2385828601611cda565b9250506020611f3485828601611d82565b9150509250929050565b600060208284031215611f5057600080fd5b6000611f5e84828501611d04565b91505092915050565b600060208284031215611f7957600080fd5b6000611f8784828501611d19565b91505092915050565b600060208284031215611fa257600080fd5b600082013567ffffffffffffffff811115611fbc57600080fd5b611fc884828501611d58565b91505092915050565b600060208284031215611fe357600080fd5b6000611ff184828501611d82565b91505092915050565b600061200683836123dd565b905092915050565b600061201a838361245a565b60208301905092915050565b61202f81612983565b82525050565b600061204082612822565b61204a8185612868565b93508360208202850161205c85612802565b8060005b8581101561209857848403895281516120798582611ffa565b94506120848361284e565b925060208a01995050600181019050612060565b50829750879550505050505092915050565b60006120b58261282d565b6120bf8185612879565b93506120ca83612812565b8060005b838110156120fb5781516120e2888261200e565b97506120ed8361285b565b9250506001810190506120ce565b5085935050505092915050565b61211181612995565b82525050565b600061212282612838565b61212c818561288a565b935061213c818560208601612a06565b61214581612bd2565b840191505092915050565b600061215b82612843565b612165818561289b565b9350612175818560208601612a06565b61217e81612bd2565b840191505092915050565b600061219482612843565b61219e81856128ac565b93506121ae818560208601612a06565b6121b781612bd2565b840191505092915050565b60006121cd82612843565b6121d781856128bd565b93506121e7818560208601612a06565b80840191505092915050565b60006122006032836128ac565b915061220b82612be3565b604082019050919050565b60006122236025836128ac565b915061222e82612c32565b604082019050919050565b6000612246601c836128ac565b915061225182612c81565b602082019050919050565b60006122696024836128ac565b915061227482612caa565b604082019050919050565b600061228c6019836128ac565b915061229782612cf9565b602082019050919050565b60006122af602c836128ac565b91506122ba82612d22565b604082019050919050565b60006122d26030836128bd565b91506122dd82612d71565b603082019050919050565b60006122f56038836128ac565b915061230082612dc0565b604082019050919050565b6000612318602a836128ac565b915061232382612e0f565b604082019050919050565b600061233b6029836128ac565b915061234682612e5e565b604082019050919050565b600061235e6020836128ac565b915061236982612ead565b602082019050919050565b6000612381602c836128ac565b915061238c82612ed6565b604082019050919050565b60006123a46021836128ac565b91506123af82612f25565b604082019050919050565b60006123c76031836128ac565b91506123d282612f74565b604082019050919050565b600060a0830160008301516123f5600086018261245a565b506020830151848203602086015261240d8282612150565b915050604083015184820360408601526124278282612150565b915050606083015161243c606086018261245a565b50608083015161244f608086018261245a565b508091505092915050565b612463816129ed565b82525050565b612472816129ed565b82525050565b6000612483826122c5565b915061248f82846121c2565b915081905092915050565b60006020820190506124af6000830184612026565b92915050565b60006080820190506124ca6000830187612026565b6124d76020830186612026565b6124e46040830185612469565b81810360608301526124f68184612117565b905095945050505050565b6000602082019050818103600083015261251b8184612035565b905092915050565b6000602082019050818103600083015261253d81846120aa565b905092915050565b600060208201905061255a6000830184612108565b92915050565b6000602082019050818103600083015261257a8184612189565b905092915050565b6000606082019050818103600083015261259c8186612189565b90506125ab6020830185612469565b6125b86040830184612469565b949350505050565b600060208201905081810360008301526125d9816121f3565b9050919050565b600060208201905081810360008301526125f981612216565b9050919050565b6000602082019050818103600083015261261981612239565b9050919050565b600060208201905081810360008301526126398161225c565b9050919050565b600060208201905081810360008301526126598161227f565b9050919050565b60006020820190508181036000830152612679816122a2565b9050919050565b60006020820190508181036000830152612699816122e8565b9050919050565b600060208201905081810360008301526126b98161230b565b9050919050565b600060208201905081810360008301526126d98161232e565b9050919050565b600060208201905081810360008301526126f981612351565b9050919050565b6000602082019050818103600083015261271981612374565b9050919050565b6000602082019050818103600083015261273981612397565b9050919050565b60006020820190508181036000830152612759816123ba565b9050919050565b60006020820190506127756000830184612469565b92915050565b6000612785612796565b90506127918282612a6b565b919050565b6000604051905090565b600067ffffffffffffffff8211156127bb576127ba612ba3565b5b6127c482612bd2565b9050602081019050919050565b600067ffffffffffffffff8211156127ec576127eb612ba3565b5b6127f582612bd2565b9050602081019050919050565b6000819050602082019050919050565b6000819050602082019050919050565b600081519050919050565b600081519050919050565b600081519050919050565b600081519050919050565b6000602082019050919050565b6000602082019050919050565b600082825260208201905092915050565b600082825260208201905092915050565b600082825260208201905092915050565b600082825260208201905092915050565b600082825260208201905092915050565b600081905092915050565b60006128d3826129ed565b91506128de836129ed565b9250827fffffffffffffffffffffffffffffffffffffffffffffffffffffffffffffffff0382111561291357612912612b16565b5b828201905092915050565b6000612929826129ed565b9150612934836129ed565b92508261294457612943612b45565b5b828204905092915050565b600061295a826129ed565b9150612965836129ed565b92508282101561297857612977612b16565b5b828203905092915050565b600061298e826129cd565b9050919050565b60008115159050919050565b60007fffffffff0000000000000000000000000000000000000000000000000000000082169050919050565b600073ffffffffffffffffffffffffffffffffffffffff82169050919050565b6000819050919050565b82818337600083830152505050565b60005b83811015612a24578082015181840152602081019050612a09565b83811115612a33576000848401525b50505050565b60006002820490506001821680612a5157607f821691505b60208210811415612a6557612a64612b74565b5b50919050565b612a7482612bd2565b810181811067ffffffffffffffff82111715612a9357612a92612ba3565b5b80604052505050565b6000612aa7826129ed565b91507fffffffffffffffffffffffffffffffffffffffffffffffffffffffffffffffff821415612ada57612ad9612b16565b5b600182019050919050565b6000612af0826129ed565b9150612afb836129ed565b925082612b0b57612b0a612b45565b5b828206905092915050565b7f4e487b7100000000000000000000000000000000000000000000000000000000600052601160045260246000fd5b7f4e487b7100000000000000000000000000000000000000000000000000000000600052601260045260246000fd5b7f4e487b7100000000000000000000000000000000000000000000000000000000600052602260045260246000fd5b7f4e487b7100000000000000000000000000000000000000000000000000000000600052604160045260246000fd5b6000601f19601f8301169050919050565b7f4552433732313a207472616e7366657220746f206e6f6e20455243373231526560008201527f63656976657220696d706c656d656e7465720000000000000000000000000000602082015250565b7f4552433732313a207472616e736665722066726f6d20696e636f72726563742060008201527f6f776e6572000000000000000000000000000000000000000000000000000000602082015250565b7f4552433732313a20746f6b656e20616c7265616479206d696e74656400000000600082015250565b7f4552433732313a207472616e7366657220746f20746865207a65726f2061646460008201527f7265737300000000000000000000000000000000000000000000000000000000602082015250565b7f4552433732313a20617070726f766520746f2063616c6c657200000000000000600082015250565b7f4552433732313a206f70657261746f7220717565727920666f72206e6f6e657860008201527f697374656e7420746f6b656e0000000000000000000000000000000000000000602082015250565b7f68747470733a2f2f746573746e65742e7461626c656c616e642e6e6574776f7260008201527f6b2f7461626c65732f3330392f69642f00000000000000000000000000000000602082015250565b7f4552433732313a20617070726f76652063616c6c6572206973206e6f74206f7760008201527f6e6572206e6f7220617070726f76656420666f7220616c6c0000000000000000602082015250565b7f4552433732313a2062616c616e636520717565727920666f7220746865207a6560008201527f726f206164647265737300000000000000000000000000000000000000000000602082015250565b7f4552433732313a206f776e657220717565727920666f72206e6f6e657869737460008201527f656e7420746f6b656e0000000000000000000000000000000000000000000000602082015250565b7f4552433732313a206d696e7420746f20746865207a65726f2061646472657373600082015250565b7f4552433732313a20617070726f76656420717565727920666f72206e6f6e657860008201527f697374656e7420746f6b656e0000000000000000000000000000000000000000602082015250565b7f4552433732313a20617070726f76616c20746f2063757272656e74206f776e6560008201527f7200000000000000000000000000000000000000000000000000000000000000602082015250565b7f4552433732313a207472616e736665722063616c6c6572206973206e6f74206f60008201527f776e6572206e6f7220617070726f766564000000000000000000000000000000602082015250565b612fcc81612983565b8114612fd757600080fd5b50565b612fe381612995565b8114612fee57600080fd5b50565b612ffa816129a1565b811461300557600080fd5b50565b613011816129ed565b811461301c57600080fd5b5056fe4d696e746564204e465420772f20746f6b656e496420257320616e6420636861726163746572496e646578202573a2646970667358221220b2a50037682df4383b416678d30d9377d94a7e104d93f32370a57899593652cc64736f6c63430008040033",
  "linkReferences": {},
  "deployedLinkReferences": {}
}